{
  "contractName": "Calculator",
  "abi": [
    {
      "anonymous": false,
      "inputs": [
        {
          "indexed": false,
          "name": "user_id",
          "type": "address"
        },
        {
          "indexed": false,
          "name": "number",
          "type": "int256"
        }
      ],
      "name": "DivisionByZero",
      "type": "event"
    },
    {
      "anonymous": false,
      "inputs": [
        {
          "indexed": false,
          "name": "user_id",
          "type": "address"
        },
        {
          "indexed": false,
          "name": "number",
          "type": "int256"
        }
      ],
      "name": "MemoryUpdated",
      "type": "event"
    },
    {
      "anonymous": false,
      "inputs": [
        {
          "indexed": false,
          "name": "user_id",
          "type": "address"
        },
        {
          "indexed": false,
          "name": "number",
          "type": "int256"
        }
      ],
      "name": "Result",
      "type": "event"
    },
    {
      "constant": false,
      "inputs": [],
      "name": "Constructor",
      "outputs": [],
      "payable": false,
      "stateMutability": "nonpayable",
      "type": "function"
    },
    {
      "constant": true,
      "inputs": [
        {
          "name": "a",
          "type": "int256"
        },
        {
          "name": "b",
          "type": "int256"
        }
      ],
      "name": "add",
      "outputs": [
        {
          "name": "",
          "type": "int256"
        }
      ],
      "payable": false,
      "stateMutability": "pure",
      "type": "function"
    },
    {
      "constant": true,
      "inputs": [
        {
          "name": "a",
          "type": "int256"
        }
      ],
      "name": "addMemory",
      "outputs": [
        {
          "name": "",
          "type": "int256"
        }
      ],
      "payable": false,
      "stateMutability": "view",
      "type": "function"
    },
    {
      "constant": true,
      "inputs": [
        {
          "name": "a",
          "type": "int256"
        },
        {
          "name": "b",
          "type": "int256"
        }
      ],
      "name": "substract",
      "outputs": [
        {
          "name": "",
          "type": "int256"
        }
      ],
      "payable": false,
      "stateMutability": "pure",
      "type": "function"
    },
    {
      "constant": true,
      "inputs": [
        {
          "name": "a",
          "type": "int256"
        }
      ],
      "name": "substractMemory",
      "outputs": [
        {
          "name": "",
          "type": "int256"
        }
      ],
      "payable": false,
      "stateMutability": "view",
      "type": "function"
    },
    {
      "constant": false,
      "inputs": [
        {
          "name": "result",
          "type": "int256"
        }
      ],
      "name": "storeMemory",
      "outputs": [
        {
          "name": "",
          "type": "int256"
        }
      ],
      "payable": false,
      "stateMutability": "nonpayable",
      "type": "function"
    },
    {
      "constant": true,
      "inputs": [],
      "name": "getMemory",
      "outputs": [
        {
          "name": "",
          "type": "int256"
        }
      ],
      "payable": false,
      "stateMutability": "view",
      "type": "function"
    },
    {
      "constant": false,
      "inputs": [],
      "name": "deleteMemory",
      "outputs": [],
      "payable": false,
      "stateMutability": "nonpayable",
      "type": "function"
    },
    {
      "constant": true,
      "inputs": [
        {
          "name": "a",
          "type": "int256"
        },
        {
          "name": "b",
          "type": "int256"
        }
      ],
      "name": "multiply",
      "outputs": [
        {
          "name": "",
          "type": "int256"
        }
      ],
      "payable": false,
      "stateMutability": "pure",
      "type": "function"
    },
    {
      "constant": true,
      "inputs": [
        {
          "name": "a",
          "type": "int256"
        },
        {
          "name": "b",
          "type": "int256"
        }
      ],
      "name": "divide",
      "outputs": [
        {
          "name": "",
          "type": "int256"
        }
      ],
      "payable": false,
      "stateMutability": "pure",
      "type": "function"
    },
    {
      "constant": true,
      "inputs": [
        {
          "name": "a",
          "type": "int256"
        }
      ],
      "name": "multiplyMemory",
      "outputs": [
        {
          "name": "",
          "type": "int256"
        }
      ],
      "payable": false,
      "stateMutability": "view",
      "type": "function"
    },
    {
      "constant": false,
      "inputs": [
        {
          "name": "a",
          "type": "int256"
        }
      ],
      "name": "divideMemory",
      "outputs": [
        {
          "name": "",
          "type": "int256"
        }
      ],
      "payable": false,
      "stateMutability": "nonpayable",
      "type": "function"
    },
    {
      "constant": true,
      "inputs": [
        {
          "name": "a",
          "type": "int256"
        }
      ],
      "name": "factorial",
      "outputs": [
        {
          "name": "",
          "type": "int256"
        }
      ],
      "payable": false,
      "stateMutability": "pure",
      "type": "function"
    }
  ],
  "bytecode": "0x608060405234801561001057600080fd5b50610a83806100206000396000f3006080604052600436106100c5576000357c0100000000000000000000000000000000000000000000000000000000900463ffffffff1680633095ecd6146100ca5780633600dad51461010b5780633c4308a81461014c5780633f4702c014610197578063495ef766146101c25780635ad78e8a1461020357806370027005146102445780637a9976421461028f5780638a3c44a5146102d0578063a5f3c23b146102e7578063b68f89f214610332578063e1d617b614610373578063f59842361461038a575b600080fd5b3480156100d657600080fd5b506100f5600480360381019080803590602001909291905050506103d5565b6040518082815260200191505060405180910390f35b34801561011757600080fd5b5061013660048036038101908080359060200190929190505050610547565b6040518082815260200191505060405180910390f35b34801561015857600080fd5b506101816004803603810190808035906020019092919080359060200190929190505050610591565b6040518082815260200191505060405180910390f35b3480156101a357600080fd5b506101ac61059e565b6040518082815260200191505060405180910390f35b3480156101ce57600080fd5b506101ed600480360381019080803590602001909291905050506105e4565b6040518082815260200191505060405180910390f35b34801561020f57600080fd5b5061022e6004803603810190808035906020019092919050505061062e565b6040518082815260200191505060405180910390f35b34801561025057600080fd5b506102796004803603810190808035906020019092919080359060200190929190505050610718565b6040518082815260200191505060405180910390f35b34801561029b57600080fd5b506102ba60048036038101908080359060200190929190505050610725565b6040518082815260200191505060405180910390f35b3480156102dc57600080fd5b506102e5610818565b005b3480156102f357600080fd5b5061031c600480360381019080803590602001909291908035906020019092919050505061085e565b6040518082815260200191505060405180910390f35b34801561033e57600080fd5b5061035d6004803603810190808035906020019092919050505061086b565b6040518082815260200191505060405180910390f35b34801561037f57600080fd5b506103886108b5565b005b34801561039657600080fd5b506103bf60048036038101908080359060200190929190803590602001909291905050506109a4565b6040518082815260200191505060405180910390f35b6000806000803373ffffffffffffffffffffffffffffffffffffffff1673ffffffffffffffffffffffffffffffffffffffff16815260200190815260200160002054141561048d577fc56216de67e369873f45ec2e51d153fad7e66d4bfdf6fa2d44f2d2b3ea671b403383604051808373ffffffffffffffffffffffffffffffffffffffff1673ffffffffffffffffffffffffffffffffffffffff1681526020018281526020019250505060405180910390a1610542565b7f39ea7cc31c4da5da1b0a265d986006a49ef15bc906a28e1548bc67cd886d1560336000803373ffffffffffffffffffffffffffffffffffffffff1673ffffffffffffffffffffffffffffffffffffffff16815260200190815260200160002054848115156104f857fe5b05604051808373ffffffffffffffffffffffffffffffffffffffff1673ffffffffffffffffffffffffffffffffffffffff1681526020018281526020019250505060405180910390a15b919050565b60008060003373ffffffffffffffffffffffffffffffffffffffff1673ffffffffffffffffffffffffffffffffffffffff1681526020019081526020016000205482029050919050565b6000818302905092915050565b60008060003373ffffffffffffffffffffffffffffffffffffffff1673ffffffffffffffffffffffffffffffffffffffff16815260200190815260200160002054905090565b60008060003373ffffffffffffffffffffffffffffffffffffffff1673ffffffffffffffffffffffffffffffffffffffff1681526020019081526020016000205482039050919050565b6000807fffffffffffffffffffffffffffffffffffffffffffffffffffffffffffffffff831315156106ee576040517f08c379a00000000000000000000000000000000000000000000000000000000081526004018080602001828103825260218152602001807f4e756d6265722068617320746f20626520626967676572207468616e207a657281526020017f6f0000000000000000000000000000000000000000000000000000000000000081525060400191505060405180910390fd5b600190505b600083131561070f5782810290508280600190039350506106f3565b80915050919050565b6000818303905092915050565b6000816000803373ffffffffffffffffffffffffffffffffffffffff1673ffffffffffffffffffffffffffffffffffffffff168152602001908152602001600020819055507f466685e32d9cea7b42727471f319e2de3eb6d8abd0a1e403509cdc483b0b1ba6336000803373ffffffffffffffffffffffffffffffffffffffff1673ffffffffffffffffffffffffffffffffffffffff16815260200190815260200160002054604051808373ffffffffffffffffffffffffffffffffffffffff1673ffffffffffffffffffffffffffffffffffffffff1681526020018281526020019250505060405180910390a1919050565b60008060003373ffffffffffffffffffffffffffffffffffffffff1673ffffffffffffffffffffffffffffffffffffffff16815260200190815260200160002081905550565b6000818301905092915050565b60008060003373ffffffffffffffffffffffffffffffffffffffff1673ffffffffffffffffffffffffffffffffffffffff1681526020019081526020016000205482019050919050565b60008060003373ffffffffffffffffffffffffffffffffffffffff1673ffffffffffffffffffffffffffffffffffffffff168152602001908152602001600020819055507f466685e32d9cea7b42727471f319e2de3eb6d8abd0a1e403509cdc483b0b1ba6336000803373ffffffffffffffffffffffffffffffffffffffff1673ffffffffffffffffffffffffffffffffffffffff16815260200190815260200160002054604051808373ffffffffffffffffffffffffffffffffffffffff1673ffffffffffffffffffffffffffffffffffffffff1681526020018281526020019250505060405180910390a1565b60008082131515610a43576040517f08c379a00000000000000000000000000000000000000000000000000000000081526004018080602001828103825260228152602001807f44697669736f722068617320746f20626520626967676572207468616e207a6581526020017f726f00000000000000000000000000000000000000000000000000000000000081525060400191505060405180910390fd5b8183811515610a4e57fe5b059050929150505600a165627a7a723058209b43a9a7ba28650370ae8803da3c5340ebe3703cdc5bcd5b241a11c01d656b0e0029",
  "source": "pragma solidity ^0.4.0;\n//compiler 0.5 works\n\ncontract Calculator {\n    //Attributes\n    mapping(address => int256) _memory;\n\n    event DivisionByZero(address user_id, int256 number);\n    event MemoryUpdated(address user_id, int256 number);\n    event Result(address user_id, int256 number);\n\n    //Constructor\n    function Constructor() public\n    {\n        _memory[msg.sender] = 0;\n    }\n    //Functions\n    function add(int256 a, int256 b) public pure returns (int256)\n    {\n        return a + b;\n    }\n    function addMemory(int256 a) public view returns (int256)\n    {\n        return a + _memory[msg.sender];\n    }\n    function substract(int256 a, int256 b) public pure returns (int256)\n    {\n        return a - b;\n    }\n    function substractMemory(int256 a) public view returns (int256)\n    {\n        return a - _memory[msg.sender];\n    }\n    function storeMemory(int256 result) public returns (int256)\n    {\n        _memory[msg.sender] = result;\n        emit MemoryUpdated(msg.sender, _memory[msg.sender]);\n    }\n    function getMemory() public view returns (int256)\n    {\n        return _memory[msg.sender];\n    }\n    function deleteMemory() public\n    {\n      _memory[msg.sender] = 0;\n      emit MemoryUpdated(msg.sender, _memory[msg.sender]);\n    }\n    function multiply(int256 a, int256 b) public pure returns (int256)\n    {\n        return a * b;\n    }\n    function divide(int256 a, int256 b) public pure returns (int256)\n    {\n        require(b > 0, \"Divisor has to be bigger than zero\");\n        return a / b;\n    }\n    function multiplyMemory(int256 a) public view returns (int256)\n    {\n        return a * _memory[msg.sender];\n    }\n    function divideMemory(int256 a) public returns (int256)\n    {\n        if(_memory[msg.sender] == 0){\n            emit DivisionByZero(msg.sender, a);\n        }else{\n            emit Result(msg.sender, a / _memory[msg.sender]);\n        }\n    }\n    function factorial(int256 a) public pure returns (int256)\n    {\n        require(a > -1, \"Number has to be bigger than zero\");\n        int256 result = 1;\n        while(a > 0){\n            result = result * a;\n            a--;\n        }\n        return result;\n    }\n}\n",
  "sourcePath": "/home/elementary/Documentos/Unir/Blockchain/Ethereum/Trabajo entregable/Calculadora/contracts/Calculator.sol",
  "compiler": {
    "name": "solc",
    "version": "0.4.26+commit.4563c3fc.Emscripten.clang"
  },
  "schemaVersion": "3.1.0",
  "updatedAt": "2020-12-22T07:41:58.216Z",
  "networkType": "ethereum",
  "devdoc": {
    "methods": {}
  },
  "userdoc": {
    "methods": {}
  }
}